{
  "contractName": "SecureData",
  "abi": [
    {
      "inputs": [],
      "name": "storedHash",
      "outputs": [
        {
          "internalType": "bytes32",
          "name": "",
          "type": "bytes32"
        }
      ],
      "stateMutability": "view",
      "type": "function",
      "constant": true
    },
    {
      "inputs": [
        {
          "internalType": "bytes32",
          "name": "hash",
          "type": "bytes32"
        }
      ],
      "name": "storeHash",
      "outputs": [],
      "stateMutability": "nonpayable",
      "type": "function"
    },
    {
      "inputs": [
        {
          "internalType": "bytes32",
          "name": "hash",
          "type": "bytes32"
        }
      ],
      "name": "verifyHash",
      "outputs": [
        {
          "internalType": "bool",
          "name": "",
          "type": "bool"
        }
      ],
      "stateMutability": "view",
      "type": "function",
      "constant": true
    }
  ],
  "bytecode": "0x608060405234801561001057600080fd5b506101c3806100206000396000f3fe608060405234801561001057600080fd5b50600436106100415760003560e01c80637fe8888514610046578063b0da519514610062578063ef020f4a14610080575b600080fd5b610060600480360381019061005b91906100e3565b6100b0565b005b61006a6100ba565b6040516100779190610145565b60405180910390f35b61009a600480360381019061009591906100e3565b6100c0565b6040516100a7919061012a565b60405180910390f35b8060008190555050565b60005481565b600081600054149050919050565b6000813590506100dd81610176565b92915050565b6000602082840312156100f557600080fd5b6000610103848285016100ce565b91505092915050565b61011581610160565b82525050565b6101248161016c565b82525050565b600060208201905061013f600083018461010c565b92915050565b600060208201905061015a600083018461011b565b92915050565b60008115159050919050565b6000819050919050565b61017f8161016c565b811461018a57600080fd5b5056fea2646970667358221220263eb39400fefdf8d6fa9d922a93c0e62957453194da5a2027fc9af9c84342b064736f6c63430008000033",
  "immutableReferences": {},
  "source": "// SPDX-License-Identifier: MIT\r\npragma solidity ^0.8.0;\r\n\r\ncontract SecureData {\r\n    bytes32 public storedHash;\r\n\r\n    function storeHash(bytes32 hash) public {\r\n        storedHash = hash;\r\n    }\r\n\r\n    function verifyHash(bytes32 hash) public view returns (bool) {\r\n        return storedHash == hash;\r\n    }\r\n}\r\n",
  "sourcePath": "C:\\Users\\arnav\\OneDrive\\desktop\\qr\\contracts\\SecureData.sol",
  "compiler": {
    "name": "solc",
    "version": "0.8.0+commit.c7dfd78e.Emscripten.clang"
  },
  "schemaVersion": "3.4.16",
  "updatedAt": "2024-08-25T07:04:19.315Z",
  "networkType": "ethereum",
  "devdoc": {
    "kind": "dev",
    "methods": {},
    "version": 1
  },
  "userdoc": {
    "kind": "user",
    "methods": {},
    "version": 1
  }
}